:1000000061ED00F068ED00F0CEB604EF00F0F4EC26
:10001000FFF0C06BF4ECFFF0C081CEB614EF00F03F
:10002000010EC06F10EF00F0F4ECFFF0F4ECFFF005
:10003000C083CEB620EF00F0030EC06F1CEF00F0BF
:10004000F4ECFFF0C085CEB62AEF00F0070EC06FCB
:1000500026EF00F0F4ECFFF0F4ECFFF0C08735EF92
:1000600000F00F0EC06F31EF00F0F4ECFFF0C0892C
:10007000CEB63FEF00F00F0EC06F3BEF00F0F4EC98
:10008000FFF0F4ECFFF0C08BCEB64BEF00F03F0E6C
:10009000C06F47EF00F0F4ECFFF0C08DCEB655EF27
:1000A00000F07F0EC06F51EF00F0F4ECFFF0F4ECC5
:1000B000FFF0C08FCEB607EF00F0FF0EC06F5DEF10
:1000C00000F00001600EAD6F0001020EB16F120072
:1000D0000401D06BC06B106BC86B0401CE69006B60
:0600E000C6870187120033
:020000040001F9
:10FEDA0000EF00F0010E006E0000002E71EFFFF03F
:10FEEA001200050E006E0000002E78EFFFF01200DF
:10FEFA000B0E006E0000002E7FEFFFF01200180EAE
:10FF0A00006E0000002E86EFFFF01200310E006E28
:10FF1A000000002E8DEFFFF012003D0E006E000073
:10FF2A00002E94EFFFF012007C0E006E0000002EEF
:10FF3A009BEFFFF01200010E016EF90E006E000039
:10FF4A00002EA4EFFFF0012EA2EFFFF01200050E23
:10FF5A00016EF90E006E0000002EF8EFFFF0012E80
:10FF6A00F6EFFFF012000A0E016EF90E006E0000A5
:10FF7A00002EF8EFFFF0012EF6EFFFF01200190E37
:10FF8A00016EF90E006E0000002EF8EFFFF0012E50
:10FF9A00F6EFFFF01200320E016EF90E006E00004D
:10FFAA00002EF8EFFFF0012EF6EFFFF01200640EBC
:10FFBA00016EF90E006E0000002EF8EFFFF0012E20
:10FFCA00F6EFFFF01200C80E016EF90E006E000087
:10FFDA00002EF8EFFFF0012EF6EFFFF01200FA0EF6
:10FFEA00016EF90E006E0000002EF8EFFFF0012EF0
:06FFFA00F6EFFFF012001B
:020000040030CA
:10000000EC0F27C79FFFFFFFFFFFFFFFFFFFFFFF73
:10001000FFFFFFFFFFFFFFFFFFFFFFFFFFFFFFFFF0
:03002000FFFFFFE0
:00000001FF
