:040000000CEF00F011
:10000800B8A02AEF00F09CEF00F0B890B490100070
:10001800AFA014EF00F0AF9022EF00F0D06AAF90DD
:10002800AF901000C37690ED00F090ED00F0C3762D
:1000380090ED00F090ED00F016EF00F0050E056E63
:100048000A0E046E000E036E43EF00F0B4A009EF31
:1000580000F02FEF00F0B490B8B09CEF00F0B4A01F
:1000680030EF00F009EF00F0F926810C420C240C67
:10007800180C000C180C240C420C810C000CC386C4
:100088000401000EFB6F000EFA6F034438EC00F019
:10009800C06E90ED00F0042E57EF00F0052E24EF0F
:1000A80000F012EF00F0032A43EF00F00001600EA9
:1000B800AD6F020EB16F12000401CE6B006BC687E4
:1000C80001870401CF6B086BC78909890401D06BCC
:1000D800106BC86B0401D36A286BCB85CB97298535
:1000E80012000201030E3E6F02010C0E3F6F020167
:1000F8002A0E406F1200D68A0301639168936C93AD
:10010800D690AF909F80D692B490A480D694B890A1
:10011800A880D68ED68C1200FA0E016EF90E006EEB
:100128000000002E94EF00F0012E92EF00F0120074
:02013800B8907D
:020000040030CA
:10000000EC0F27C79FFFFFFFFFFFFFFFFFFFFFFF73
:10001000FFFFFFFFFFFFFFFFFFFFFFFFFFFFFFFFF0
:03002000FFFFFFE0
:00000001FF
